{
  "contractName": "YieldNftTokenLock",
  "abi": [
    {
      "inputs": [],
      "stateMutability": "nonpayable",
      "type": "constructor"
    },
    {
      "anonymous": false,
      "inputs": [
        {
          "indexed": true,
          "internalType": "address",
          "name": "to",
          "type": "address"
        },
        {
          "indexed": false,
          "internalType": "uint256",
          "name": "amount",
          "type": "uint256"
        }
      ],
      "name": "TokensTransferred",
      "type": "event"
    },
    {
      "inputs": [],
      "name": "_admin",
      "outputs": [
        {
          "internalType": "address",
          "name": "",
          "type": "address"
        }
      ],
      "stateMutability": "view",
      "type": "function",
      "constant": true
    },
    {
      "inputs": [],
      "name": "token",
      "outputs": [
        {
          "internalType": "contract IERC20",
          "name": "",
          "type": "address"
        }
      ],
      "stateMutability": "view",
      "type": "function",
      "constant": true
    },
    {
      "inputs": [
        {
          "internalType": "uint256",
          "name": "",
          "type": "uint256"
        }
      ],
      "name": "withdrawalRecord",
      "outputs": [
        {
          "internalType": "address",
          "name": "user",
          "type": "address"
        },
        {
          "internalType": "uint256",
          "name": "amount",
          "type": "uint256"
        },
        {
          "internalType": "uint256",
          "name": "timestamp",
          "type": "uint256"
        },
        {
          "internalType": "string",
          "name": "txType",
          "type": "string"
        }
      ],
      "stateMutability": "view",
      "type": "function",
      "constant": true
    },
    {
      "inputs": [
        {
          "internalType": "address",
          "name": "adminAddress",
          "type": "address"
        }
      ],
      "name": "setAdmin",
      "outputs": [],
      "stateMutability": "nonpayable",
      "type": "function"
    },
    {
      "inputs": [],
      "name": "relinquishOwnership",
      "outputs": [],
      "stateMutability": "nonpayable",
      "type": "function"
    },
    {
      "inputs": [],
      "name": "getBalance",
      "outputs": [
        {
          "internalType": "uint256",
          "name": "",
          "type": "uint256"
        }
      ],
      "stateMutability": "view",
      "type": "function",
      "constant": true
    },
    {
      "inputs": [
        {
          "internalType": "address",
          "name": "_to",
          "type": "address"
        },
        {
          "internalType": "uint256",
          "name": "_amount",
          "type": "uint256"
        }
      ],
      "name": "transferTokens",
      "outputs": [],
      "stateMutability": "nonpayable",
      "type": "function"
    },
    {
      "inputs": [
        {
          "internalType": "address",
          "name": "_to",
          "type": "address"
        },
        {
          "internalType": "uint256",
          "name": "_amount",
          "type": "uint256"
        },
        {
          "internalType": "string",
          "name": "_txType",
          "type": "string"
        }
      ],
      "name": "withdrawLock",
      "outputs": [
        {
          "internalType": "bool",
          "name": "",
          "type": "bool"
        }
      ],
      "stateMutability": "nonpayable",
      "type": "function"
    },
    {
      "inputs": [],
      "name": "getWithdrawalRecord",
      "outputs": [
        {
          "components": [
            {
              "internalType": "address",
              "name": "user",
              "type": "address"
            },
            {
              "internalType": "uint256",
              "name": "amount",
              "type": "uint256"
            },
            {
              "internalType": "uint256",
              "name": "timestamp",
              "type": "uint256"
            },
            {
              "internalType": "string",
              "name": "txType",
              "type": "string"
            }
          ],
          "internalType": "struct YieldNftTokenLock.Withdrawal[]",
          "name": "",
          "type": "tuple[]"
        }
      ],
      "stateMutability": "view",
      "type": "function",
      "constant": true
    }
  ],
  "bytecode": "0x608060405234801561001057600080fd5b507329272f1212ed74f30962f1d2c61238fb87cf3d5f6000806101000a81548173ffffffffffffffffffffffffffffffffffffffff021916908373ffffffffffffffffffffffffffffffffffffffff16021790555073db339be8e04db248ea2bdd7c308c5589c121c6bb600160006101000a81548173ffffffffffffffffffffffffffffffffffffffff021916908373ffffffffffffffffffffffffffffffffffffffff16021790555061186e806100c96000396000f3fe608060405234801561001057600080fd5b50600436106100935760003560e01c8063bec3fa1711610066578063bec3fa171461010e578063c587396b1461012a578063d0a1ce5214610134578063dc03df9214610164578063fc0c546a1461019757610093565b806301bc45c91461009857806312065fe0146100b657806357667a3e146100d4578063704b6c02146100f2575b600080fd5b6100a06101b5565b6040516100ad9190610c96565b60405180910390f35b6100be6101db565b6040516100cb9190610cca565b60405180910390f35b6100dc61030c565b6040516100e99190610eb8565b60405180910390f35b61010c60048036038101906101079190610f1a565b610467565b005b61012860048036038101906101239190610f73565b61053b565b005b6101326107ac565b005b61014e600480360381019061014991906110e8565b610880565b60405161015b9190611172565b60405180910390f35b61017e6004803603810190610179919061118d565b610b49565b60405161018e9493929190611204565b60405180910390f35b61019f610c31565b6040516101ac91906112af565b60405180910390f35b600160009054906101000a900473ffffffffffffffffffffffffffffffffffffffff1681565b6000600160009054906101000a900473ffffffffffffffffffffffffffffffffffffffff1673ffffffffffffffffffffffffffffffffffffffff163373ffffffffffffffffffffffffffffffffffffffff161461026d576040517f08c379a00000000000000000000000000000000000000000000000000000000081526004016102649061133c565b60405180910390fd5b60008054906101000a900473ffffffffffffffffffffffffffffffffffffffff1673ffffffffffffffffffffffffffffffffffffffff166370a08231306040518263ffffffff1660e01b81526004016102c69190610c96565b602060405180830381865afa1580156102e3573d6000803e3d6000fd5b505050506040513d601f19601f820116820180604052508101906103079190611371565b905090565b60606002805480602002602001604051908101604052809291908181526020016000905b8282101561045e57838290600052602060002090600402016040518060800160405290816000820160009054906101000a900473ffffffffffffffffffffffffffffffffffffffff1673ffffffffffffffffffffffffffffffffffffffff1673ffffffffffffffffffffffffffffffffffffffff16815260200160018201548152602001600282015481526020016003820180546103cd906113cd565b80601f01602080910402602001604051908101604052809291908181526020018280546103f9906113cd565b80156104465780601f1061041b57610100808354040283529160200191610446565b820191906000526020600020905b81548152906001019060200180831161042957829003601f168201915b50505050508152505081526020019060010190610330565b50505050905090565b600160009054906101000a900473ffffffffffffffffffffffffffffffffffffffff1673ffffffffffffffffffffffffffffffffffffffff163373ffffffffffffffffffffffffffffffffffffffff16146104f7576040517f08c379a00000000000000000000000000000000000000000000000000000000081526004016104ee9061133c565b60405180910390fd5b80600160006101000a81548173ffffffffffffffffffffffffffffffffffffffff021916908373ffffffffffffffffffffffffffffffffffffffff16021790555050565b600160009054906101000a900473ffffffffffffffffffffffffffffffffffffffff1673ffffffffffffffffffffffffffffffffffffffff163373ffffffffffffffffffffffffffffffffffffffff16146105cb576040517f08c379a00000000000000000000000000000000000000000000000000000000081526004016105c29061133c565b60405180910390fd5b600073ffffffffffffffffffffffffffffffffffffffff168273ffffffffffffffffffffffffffffffffffffffff160361063a576040517f08c379a00000000000000000000000000000000000000000000000000000000081526004016106319061144a565b60405180910390fd5b6000811161067d576040517f08c379a0000000000000000000000000000000000000000000000000000000008152600401610674906114b6565b60405180910390fd5b60008054906101000a900473ffffffffffffffffffffffffffffffffffffffff1673ffffffffffffffffffffffffffffffffffffffff1663a9059cbb83836040518363ffffffff1660e01b81526004016106d89291906114d6565b6020604051808303816000875af11580156106f7573d6000803e3d6000fd5b505050506040513d601f19601f8201168201806040525081019061071b919061152b565b61075a576040517f08c379a0000000000000000000000000000000000000000000000000000000008152600401610751906115a4565b60405180910390fd5b8173ffffffffffffffffffffffffffffffffffffffff167f12f4533b5cbd2c9f8a0752a2d0b16379af992dbb2a0844a5007a19d983b3a934826040516107a09190610cca565b60405180910390a25050565b600160009054906101000a900473ffffffffffffffffffffffffffffffffffffffff1673ffffffffffffffffffffffffffffffffffffffff163373ffffffffffffffffffffffffffffffffffffffff161461083c576040517f08c379a00000000000000000000000000000000000000000000000000000000081526004016108339061133c565b60405180910390fd5b6000600160006101000a81548173ffffffffffffffffffffffffffffffffffffffff021916908373ffffffffffffffffffffffffffffffffffffffff160217905550565b60008073ffffffffffffffffffffffffffffffffffffffff168473ffffffffffffffffffffffffffffffffffffffff16036108f0576040517f08c379a00000000000000000000000000000000000000000000000000000000081526004016108e79061144a565b60405180910390fd5b60008311610933576040517f08c379a000000000000000000000000000000000000000000000000000000000815260040161092a906114b6565b60405180910390fd5b60008060405180608001604052808773ffffffffffffffffffffffffffffffffffffffff168152602001868152602001428152602001858152509050600281908060018154018082558091505060019003906000526020600020906004020160009091909190915060008201518160000160006101000a81548173ffffffffffffffffffffffffffffffffffffffff021916908373ffffffffffffffffffffffffffffffffffffffff16021790555060208201518160010155604082015181600201556060820151816003019081610a0b9190611766565b50505060008054906101000a900473ffffffffffffffffffffffffffffffffffffffff1673ffffffffffffffffffffffffffffffffffffffff1663a9059cbb87876040518363ffffffff1660e01b8152600401610a699291906114d6565b6020604051808303816000875af1158015610a88573d6000803e3d6000fd5b505050506040513d601f19601f82011682018060405250810190610aac919061152b565b610aeb576040517f08c379a0000000000000000000000000000000000000000000000000000000008152600401610ae2906115a4565b60405180910390fd5b8573ffffffffffffffffffffffffffffffffffffffff167f12f4533b5cbd2c9f8a0752a2d0b16379af992dbb2a0844a5007a19d983b3a93486604051610b319190610cca565b60405180910390a26001915081925050509392505050565b60028181548110610b5957600080fd5b90600052602060002090600402016000915090508060000160009054906101000a900473ffffffffffffffffffffffffffffffffffffffff1690806001015490806002015490806003018054610bae906113cd565b80601f0160208091040260200160405190810160405280929190818152602001828054610bda906113cd565b8015610c275780601f10610bfc57610100808354040283529160200191610c27565b820191906000526020600020905b815481529060010190602001808311610c0a57829003601f168201915b5050505050905084565b60008054906101000a900473ffffffffffffffffffffffffffffffffffffffff1681565b600073ffffffffffffffffffffffffffffffffffffffff82169050919050565b6000610c8082610c55565b9050919050565b610c9081610c75565b82525050565b6000602082019050610cab6000830184610c87565b92915050565b6000819050919050565b610cc481610cb1565b82525050565b6000602082019050610cdf6000830184610cbb565b92915050565b600081519050919050565b600082825260208201905092915050565b6000819050602082019050919050565b610d1a81610c75565b82525050565b610d2981610cb1565b82525050565b600081519050919050565b600082825260208201905092915050565b60005b83811015610d69578082015181840152602081019050610d4e565b60008484015250505050565b6000601f19601f8301169050919050565b6000610d9182610d2f565b610d9b8185610d3a565b9350610dab818560208601610d4b565b610db481610d75565b840191505092915050565b6000608083016000830151610dd76000860182610d11565b506020830151610dea6020860182610d20565b506040830151610dfd6040860182610d20565b5060608301518482036060860152610e158282610d86565b9150508091505092915050565b6000610e2e8383610dbf565b905092915050565b6000602082019050919050565b6000610e4e82610ce5565b610e588185610cf0565b935083602082028501610e6a85610d01565b8060005b85811015610ea65784840389528151610e878582610e22565b9450610e9283610e36565b925060208a01995050600181019050610e6e565b50829750879550505050505092915050565b60006020820190508181036000830152610ed28184610e43565b905092915050565b6000604051905090565b600080fd5b600080fd5b610ef781610c75565b8114610f0257600080fd5b50565b600081359050610f1481610eee565b92915050565b600060208284031215610f3057610f2f610ee4565b5b6000610f3e84828501610f05565b91505092915050565b610f5081610cb1565b8114610f5b57600080fd5b50565b600081359050610f6d81610f47565b92915050565b60008060408385031215610f8a57610f89610ee4565b5b6000610f9885828601610f05565b9250506020610fa985828601610f5e565b9150509250929050565b600080fd5b600080fd5b7f4e487b7100000000000000000000000000000000000000000000000000000000600052604160045260246000fd5b610ff582610d75565b810181811067ffffffffffffffff8211171561101457611013610fbd565b5b80604052505050565b6000611027610eda565b90506110338282610fec565b919050565b600067ffffffffffffffff82111561105357611052610fbd565b5b61105c82610d75565b9050602081019050919050565b82818337600083830152505050565b600061108b61108684611038565b61101d565b9050828152602081018484840111156110a7576110a6610fb8565b5b6110b2848285611069565b509392505050565b600082601f8301126110cf576110ce610fb3565b5b81356110df848260208601611078565b91505092915050565b60008060006060848603121561110157611100610ee4565b5b600061110f86828701610f05565b935050602061112086828701610f5e565b925050604084013567ffffffffffffffff81111561114157611140610ee9565b5b61114d868287016110ba565b9150509250925092565b60008115159050919050565b61116c81611157565b82525050565b60006020820190506111876000830184611163565b92915050565b6000602082840312156111a3576111a2610ee4565b5b60006111b184828501610f5e565b91505092915050565b600082825260208201905092915050565b60006111d682610d2f565b6111e081856111ba565b93506111f0818560208601610d4b565b6111f981610d75565b840191505092915050565b60006080820190506112196000830187610c87565b6112266020830186610cbb565b6112336040830185610cbb565b818103606083015261124581846111cb565b905095945050505050565b6000819050919050565b600061127561127061126b84610c55565b611250565b610c55565b9050919050565b60006112878261125a565b9050919050565b60006112998261127c565b9050919050565b6112a98161128e565b82525050565b60006020820190506112c460008301846112a0565b92915050565b7f4f6e6c792061646d696e2063616e2063616c6c20746869732066756e6374696f60008201527f6e00000000000000000000000000000000000000000000000000000000000000602082015250565b60006113266021836111ba565b9150611331826112ca565b604082019050919050565b6000602082019050818103600083015261135581611319565b9050919050565b60008151905061136b81610f47565b92915050565b60006020828403121561138757611386610ee4565b5b60006113958482850161135c565b91505092915050565b7f4e487b7100000000000000000000000000000000000000000000000000000000600052602260045260246000fd5b600060028204905060018216806113e557607f821691505b6020821081036113f8576113f761139e565b5b50919050565b7f496e76616c696420616464726573730000000000000000000000000000000000600082015250565b6000611434600f836111ba565b915061143f826113fe565b602082019050919050565b6000602082019050818103600083015261146381611427565b9050919050565b7f416d6f756e74206d7573742062652067726561746572207468616e207a65726f600082015250565b60006114a06020836111ba565b91506114ab8261146a565b602082019050919050565b600060208201905081810360008301526114cf81611493565b9050919050565b60006040820190506114eb6000830185610c87565b6114f86020830184610cbb565b9392505050565b61150881611157565b811461151357600080fd5b50565b600081519050611525816114ff565b92915050565b60006020828403121561154157611540610ee4565b5b600061154f84828501611516565b91505092915050565b7f546f6b656e207472616e73666572206661696c65640000000000000000000000600082015250565b600061158e6015836111ba565b915061159982611558565b602082019050919050565b600060208201905081810360008301526115bd81611581565b9050919050565b60008190508160005260206000209050919050565b60006020601f8301049050919050565b600082821b905092915050565b6000600883026116267fffffffffffffffffffffffffffffffffffffffffffffffffffffffffffffffff826115e9565b61163086836115e9565b95508019841693508086168417925050509392505050565b600061166361165e61165984610cb1565b611250565b610cb1565b9050919050565b6000819050919050565b61167d83611648565b6116916116898261166a565b8484546115f6565b825550505050565b600090565b6116a6611699565b6116b1818484611674565b505050565b5b818110156116d5576116ca60008261169e565b6001810190506116b7565b5050565b601f82111561171a576116eb816115c4565b6116f4846115d9565b81016020851015611703578190505b61171761170f856115d9565b8301826116b6565b50505b505050565b600082821c905092915050565b600061173d6000198460080261171f565b1980831691505092915050565b6000611756838361172c565b9150826002028217905092915050565b61176f82610d2f565b67ffffffffffffffff81111561178857611787610fbd565b5b61179282546113cd565b61179d8282856116d9565b600060209050601f8311600181146117d057600084156117be578287015190505b6117c8858261174a565b865550611830565b601f1984166117de866115c4565b60005b82811015611806578489015182556001820191506020850194506020810190506117e1565b86831015611823578489015161181f601f89168261172c565b8355505b6001600288020188555050505b50505050505056fea264697066735822122077ac2a5673c2e3191e0c25974790f96005011ca8921688480932815f14abce9f64736f6c63430008130033",
  "immutableReferences": {},
  "source": "// SPDX-License-Identifier: MIT\r\n// pragma solidity ^0.8.0;\r\npragma solidity >=0.4.22 <0.9.0;\r\n\r\nimport \"@openzeppelin/contracts/token/ERC20/IERC20.sol\";\r\n\r\ncontract YieldNftTokenLock {\r\n    IERC20 public token;\r\n    address public _admin;\r\n\r\n    struct Withdrawal {\r\n        address user;\r\n        uint256 amount;\r\n        uint256 timestamp;\r\n        string txType;\r\n    }\r\n\r\n    Withdrawal[] public withdrawalRecord;\r\n\r\n    event TokensTransferred(address indexed to, uint256 amount);\r\n\r\n    modifier onlyAdmin() {\r\n        require(msg.sender == _admin, \"Only admin can call this function\");\r\n        _;\r\n    }\r\n\r\n    constructor() {\r\n        token = IERC20(0x29272F1212Ed74F30962F1D2c61238fb87cf3d5F);\r\n        _admin = 0xdb339be8E04Db248ea2bdD7C308c5589c121C6Bb;\r\n    }\r\n\r\n    function setAdmin(address adminAddress) external onlyAdmin {\r\n        _admin = adminAddress;\r\n    }\r\n\r\n    // function getAdmin() external view returns (address) {\r\n    //     return _admin;\r\n    // }\r\n\r\n    function relinquishOwnership() external onlyAdmin {\r\n        _admin = address(0);\r\n    }\r\n\r\n    function getBalance() external view onlyAdmin returns (uint256) {\r\n        return token.balanceOf(address(this));\r\n    }\r\n\r\n    function transferTokens(address _to, uint256 _amount) external onlyAdmin {\r\n        require(_to != address(0), \"Invalid address\");\r\n        require(_amount > 0, \"Amount must be greater than zero\");\r\n\r\n        require(token.transfer(_to, _amount), \"Token transfer failed\");\r\n\r\n        emit TokensTransferred(_to, _amount);\r\n    }\r\n\r\n    function withdrawLock(\r\n        address _to,\r\n        uint256 _amount,\r\n        string memory _txType\r\n    ) external returns (bool) {\r\n        require(_to != address(0), \"Invalid address\");\r\n        require(_amount > 0, \"Amount must be greater than zero\");\r\n\r\n        bool success = false;\r\n\r\n        Withdrawal memory newWithdrawal = Withdrawal({\r\n            user: _to,\r\n            amount: _amount,\r\n            timestamp: block.timestamp,\r\n            txType: _txType\r\n        });\r\n        withdrawalRecord.push(newWithdrawal);\r\n\r\n      \r\n            require(token.transfer(_to, _amount), \"Token transfer failed\");\r\n\r\n            emit TokensTransferred(_to, _amount);\r\n            success = true;\r\n  \r\n\r\n        return success;\r\n    }\r\n\r\n    function getWithdrawalRecord() external view returns (Withdrawal[] memory) {\r\n        return withdrawalRecord;\r\n    }\r\n}\r\n",
  "sourcePath": "C:\\Users\\MY PC\\Desktop\\Dev\\NftFarm\\Web3\\contracts\\YeildNftTokenLock.sol",
  "compiler": {
    "name": "solc",
    "version": "0.8.19+commit.7dd6d404.Emscripten.clang"
  },
  "schemaVersion": "3.4.14",
  "updatedAt": "2023-07-15T15:00:43.433Z",
  "networkType": "ethereum",
  "devdoc": {
    "kind": "dev",
    "methods": {},
    "version": 1
  },
  "userdoc": {
    "kind": "user",
    "methods": {},
    "version": 1
  }
}